:10000000130101FF2326810013040101B70700003B
:1000100083C70700638C0700B7070040938717006A
:10002000130720002380E7006F004001B70700405E
:1000300093871700130710002380E700B70700001D
:1000400083C70700B337F00093F7F70F93C7170084
:1000500093F7F70F93F7170013F7F70FB7070000A1
:100060002380E700130000000324C10013010101F5
:1000700067800000130101FE232E1100232C810054
:1000800013040102B70700402324F4FEB707004021
:10009000938707012322F4FE232604FE832784FE90
:1000A00003C70700832744FE2380E7000327C4FE1D
:1000B000B7877D0193870784631AF70097000000D4
:1000C000E7800000232604FE6FF05FFD8327C4FE57
:0C00D000938717002326F4FE6FF05FFCFE
:00000001FF
