:10000000130101FF2326810013040101B70700003B
:1000100083C70700638C0700B7170040938717005A
:10002000130720002380E7006F004001B71700404E
:1000300093871700130710002380E700B70700001D
:1000400083C70700B337F00093F7F70F93C7170084
:1000500093F7F70F93F7170013F7F70FB7070000A1
:100060002380E700130000000324C10013010101F5
:1000700067800000130101FE232E1100232C810054
:1000800013040102B71700402324F4FEB707004011
:100090002322F4FE232604FE832784FE03C70700E1
:1000A000832744FE2380E7000327C4FEB7470F00E1
:1000B00093870724631AF70097000000E780000089
:1000C000232604FE6FF05FFD8327C4FE938717008D
:0800D0002326F4FE6FF05FFC33
:00000001FF
