:020000040000FA
:040000006F00800409
:04000400732F203402
:04000800930F8000D2
:04000C006308FF0383
:04001000930F9000BA
:040014006304FF037F
:04001800930FB00092
:04001C006300FF037B
:04002000130F0000BA
:0400240063040F0062
:0400280067000F005E
:04002C00732F2034DA
:0400300063540F0006
:040034006F00400019
:0400380093E191536C
:04003C00171F00008A
:0400400023223FFC3C
:040044006FF09FFFBB
:04004800732540F1EB
:04004C006310050038
:040050009702000013
:040054009382020190
:04005800739052301F
:04005C0073500018C5
:040060009702000003
:040064009382C201C0
:04006800739052300F
:04006C009302F0FF0C
:040070007390023B4C
:040074009302F00102
:040078007390023A45
:04007C0097020000E7
:0400800093828201E4
:0400840073905230F3
:040088007350203061
:04008C00735030304D
:040090007350403039
:0400940093010000D4
:0400980097020000CB
:04009C009382C2F693
:0400A00073905230D7
:0400A4001305100030
:0400A8001315F50136
:0400AC0063480500A0
:0400B0000F00F00F3E
:0400B40093011000A4
:0400B80073000000D1
:0400BC0093020000AB
:0400C000638E020049
:0400C40073905210D3
:0400C800B7B20000CB
:0400CC009382921079
:0400D00073902230D7
:0400D4007323203042
:0400D800E39062F659
:0400DC00735000302D
:0400E0009702000083
:0400E40093824201C0
:0400E80073901234CB
:0400EC00732540F147
:0400F0007300203049
:0400F4009720000051
:0400F8009380C0F041
:0400FC001301A00A42
:040100002390200028
:04010400039F000055
:04010800930EA00AA8
:04010C00930120003B
:04011000631EDF4546
:040114009720000030
:040118009380C0EE22
:04011C0037B1FFFFF9
:04012000130101A026
:040124002391200003
:04012800039F200011
:04012C00B7BEFFFF5C
:04013000938E0EA0FC
:040134009301300003
:04013800631ADF4324
:04013C009720000008
:04014000938040EC7C
:040144003711EFBEC2
:04014800130101AAF4
:04014C0023922000DA
:0401500003AF4000B9
:04015400B71EEFBE25
:04015800938E0EAACA
:04015C0093014000CB
:040160006316DF4102
:0401640097200000E0
:040168009380C0E9D7
:04016C0037A1FFFFB9
:040170001301A100D6
:0401740023932000B1
:04017800039F600081
:04017C00B7AEFFFF1C
:04018000938EAE00AC
:040184009301500093
:040188006312DF3FE0
:04018C0097200000B8
:04019000938020E850
:040194001301A00AA9
:04019800239D20FE85
:04019C00039FA0FF1E
:0401A000930EA00A10
:0401A4009301600063
:0401A8006312DF3DC2
:0401AC009720000098
:0401B000938020E632
:0401B40037B1FFFF61
:0401B800130101A08E
:0401BC00239E20FE60
:0401C000039FC0FFDA
:0401C400B7BEFFFFC4
:0401C800938E0EA064
:0401CC00930170002B
:0401D000631EDF3992
:0401D4009720000070
:0401D8009380A0E38D
:0401DC0037110000D7
:0401E000130101AA5C
:0401E400239F20FE37
:0401E800039FE0FF92
:0401EC00B71E00003A
:0401F000938E0EAA32
:0401F40093018000F3
:0401F800631ADF3770
:0401FC009720000048
:04020000938020E1E6
:0402040037A1FFFF20
:040208001301A1003D
:04020C00239020001B
:04021000039F000048
:04021400B7AEFFFF83
:04021800938EAE0013
:04021C0093019000BA
:040220006316DF354D
:04022400972000001F
:040228009380C0DE21
:04022C003751341200
:0402300013018167CE
:04023400138200FE33
:04023800231022026B
:04023C0083920000A9
:04024000B75E0000A5
:04024400938E8E67A0
:040248009301A0007E
:04024C006390D233B6
:0402500097200000F3
:04025400938000DCB7
:04025800373100003A
:04025C001301810900
:040260009380B0FFD8
:04026400A393200040
:040268001722000059
:04026C001302A2DAFD
:0402700083120200F3
:04027400B73E000091
:04027800938E8E09CA
:04027C009301B0003A
:040280006396D22F80
:040284009301C00022
:04028800130200005D
:04028C00B7D0FFFFE9
:040290009380D0CDBA
:04029400172100002E
:040298001301C1D6B7
:04029C00231011001A
:0402A000031F010037
:0402A400B7DEFFFFC3
:0402A800938EDECD86
:0402AC006310DF2DCF
:0402B0001302120023
:0402B4009302200091
:0402B800E31A52FCF7
:0402BC009301D000DA
:0402C0001302000025
:0402C400B7C0FFFFC1
:0402C8009380D0CC83
:0402CC0017210000F6
:0402D000130141D302
:0402D4001300000013
:0402D80023111100DD
:0402DC00031F2100DB
:0402E000B7CEFFFF97
:0402E400938EDECC4B
:0402E8006312DF2995
:0402EC0013021200E7
:0402F0009302200055
:0402F400E31852FCBD
:0402F8009301E0008E
:0402FC0013020000E9
:04030000B7C0FFFF84
:040304009380C0BC66
:0403080017210000B9
:04030C00130181CF89
:0403100013000000D6
:0403140013000000D2
:04031800231211009B
:04031C00031F41007A
:04032000B7CEFFFF56
:04032400938ECEBC2A
:040328006312DF2558
:04032C0013021200A6
:040330009302200014
:04033400E31652FC7E
:040338009301F0003D
:04033C0013020000A8
:04034000B7B0FFFF54
:040344009380C0BB27
:04034800130000009E
:04034C001721000075
:04035000130141CB89
:04035400231311005E
:04035800031F61001E
:04035C00B7BEFFFF2A
:04036000938ECEBBEF
:040364006314DF211E
:04036800130212006A
:04036C0093022000D8
:04037000E31852FC40
:0403740093010001F0
:04037800130200006C
:04037C00B7B0FFFF18
:040380009380B0AB0B
:040384001300000062
:040388001721000039
:04038C00130181C711
:040390001300000056
:04039400231411001D
:04039800031F8100BE
:04039C00B7BEFFFFEA
:0403A000938EBEABCF
:0403A4006314DF1DE2
:0403A800130212002A
:0403AC009302200098
:0403B000E31652FC02
:0403B40093011001A0
:0403B800130200002C
:0403BC00B7E0FFFFA8
:0403C0009380B0AACC
:0403C4001300000022
:0403C800130000001E
:0403CC0017210000F5
:0403D000130141C311
:0403D40023151100DC
:0403D800031FA1005E
:0403DC00B7EEFFFF7A
:0403E000938EBEAA90
:0403E4006314DF19A6
:0403E80013021200EA
:0403EC009302200058
:0403F000E31652FCC2
:0403F4009301200150
:0403F80013020000EC
:0403FC0017210000C5
:04040000130141C0E3
:04040400B72000001D
:04040800938030238A
:04040C0023101100A8
:04041000031F0100C5
:04041400B72E0000FF
:04041800938E3E235E
:04041C006318DF156D
:0404200013021200B1
:04042400930220001F
:04042800E31A52FC85
:04042C009301300107
:0404300013020000B3
:04043400172100008C
:040438001301C1BC2F
:04043C00B7100000F5
:040440009380302253
:0404440013000000A1
:04044800231111006B
:04044C00031F210069
:04045000B71E0000D3
:04045400938E3E2223
:04045800631ADF1133
:04045C001302120075
:0404600093022000E3
:04046400E31852FC4B
:0404680093014001BB
:04046C001302000077
:040470001721000050
:04047400130101B9B6
:04047800B7100000B9
:04047C009380201237
:040480001300000065
:040484001300000061
:04048800231211002A
:04048C00031F410009
:04049000B71E000093
:04049400938E2E1203
:04049800631ADF0DF7
:04049C001302120035
:0404A00093022000A3
:0404A400E31652FC0D
:0404A800930150016B
:0404AC001302000037
:0404B0001721000010
:0404B400130101B57A
:0404B800130000002D
:0404BC009300201178
:0404C00023131100F1
:0404C400031F6100B1
:0404C800930E20115E
:0404CC006310DF0BCF
:0404D0001302120001
:0404D400930220006F
:0404D800E31C52FCD3
:0404DC009301600127
:0404E0001302000003
:0404E40017210000DC
:0404E8001301C1B18A
:0404EC0013000000F9
:0404F0009300100164
:0404F40013000000F1
:0404F80023141100B8
:0404FC00031F810059
:04050000930E100145
:040504006314DF0796
:0405080013021200C8
:04050C009302200036
:04051000E31A52FC9C
:0405140093017001DE
:0405180013020000CA
:04051C0017210000A3
:04052000130141AED4
:0405240013000000C0
:0405280013000000BC
:04052C00B7300000E4
:0405300093801000A4
:04053400231511007A
:04053800031FA100FC
:04053C00B73E0000C6
:04054000938E1E0078
:040544006314DF035A
:040548001302120088
:04054C0093022000F6
:04055000E31652FC60
:0405540037C50000A7
:040558001305F5EEA4
:04055C0097250000DF
:04056000938545AA90
:040564002393A50038
:04056800631C3000E0
:04056C000F00F00F7D
:0405700063800100A3
:04057400939111004E
:0405780093E11100FA
:04057C007300000008
:040580000F00F00F69
:0405840093011000CF
:0405880073000000FC
:04058C00731000C028
:040590000000000067
:040594000000000063
:04059800000000005F
:04059C00000000005B
:0405A0000000000057
:0405A4000000000053
:0405A800000000004F
:0405AC00000000004B
:0405B0000000000047
:0405B4000000000043
:0405B800000000003F
:0405BC00000000003B
:0405C0000000000037
:0405C4000000000033
:0405C800000000002F
:0405CC00000000002B
:0405D0000000000027
:0405D4000000000023
:0405D800000000001F
:0405DC00000000001B
:0405E0000000000017
:0405E4000000000013
:0405E800000000000F
:0405EC00000000000B
:0405F0000000000007
:0405F4000000000003
:0405F80000000000FF
:0405FC0000000000FB
:0406000000000000F6
:0406040000000000F2
:0406080000000000EE
:04060C0000000000EA
:0406100000000000E6
:0406140000000000E2
:0406180000000000DE
:04061C0000000000DA
:0406200000000000D6
:0406240000000000D2
:0406280000000000CE
:04062C0000000000CA
:0406300000000000C6
:0406340000000000C2
:0406380000000000BE
:04063C0000000000BA
:0406400000000000B6
:0406440000000000B2
:0406480000000000AE
:04064C0000000000AA
:0406500000000000A6
:0406540000000000A2
:04065800000000009E
:04065C00000000009A
:040660000000000096
:040664000000000092
:04066800000000008E
:04066C00000000008A
:040670000000000086
:040674000000000082
:04067800000000007E
:04067C00000000007A
:040680000000000076
:040684000000000072
:04068800000000006E
:04068C00000000006A
:040690000000000066
:040694000000000062
:04069800000000005E
:04069C00000000005A
:0406A0000000000056
:0406A4000000000052
:0406A800000000004E
:0406AC00000000004A
:0406B0000000000046
:0406B4000000000042
:0406B800000000003E
:0406BC00000000003A
:0406C0000000000036
:0406C4000000000032
:0406C800000000002E
:0406CC00000000002A
:0406D0000000000026
:0406D4000000000022
:0406D800000000001E
:0406DC00000000001A
:0406E0000000000016
:0406E4000000000012
:0406E800000000000E
:0406EC00000000000A
:0406F0000000000006
:0406F4000000000002
:0406F80000000000FE
:0406FC0000000000FA
:0407000000000000F5
:0407040000000000F1
:0407080000000000ED
:04070C0000000000E9
:0407100000000000E5
:0407140000000000E1
:0407180000000000DD
:04071C0000000000D9
:0407200000000000D5
:0407240000000000D1
:0407280000000000CD
:04072C0000000000C9
:0407300000000000C5
:0407340000000000C1
:0407380000000000BD
:04073C0000000000B9
:0407400000000000B5
:0407440000000000B1
:0407480000000000AD
:04074C0000000000A9
:0407500000000000A5
:0407540000000000A1
:04075800000000009D
:04075C000000000099
:040760000000000095
:040764000000000091
:04076800000000008D
:04076C000000000089
:040770000000000085
:040774000000000081
:04077800000000007D
:04077C000000000079
:040780000000000075
:040784000000000071
:04078800000000006D
:04078C000000000069
:040790000000000065
:040794000000000061
:04079800000000005D
:04079C000000000059
:0407A0000000000055
:0407A4000000000051
:0407A800000000004D
:0407AC000000000049
:0407B0000000000045
:0407B4000000000041
:0407B800000000003D
:0407BC000000000039
:0407C0000000000035
:0407C4000000000031
:0407C800000000002D
:0407CC000000000029
:0407D0000000000025
:0407D4000000000021
:0407D800000000001D
:0407DC000000000019
:0407E0000000000015
:0407E4000000000011
:0407E800000000000D
:0407EC000000000009
:0407F0000000000005
:0407F4000000000001
:0407F80000000000FD
:0407FC0000000000F9
:0408000000000000F4
:0408040000000000F0
:0408080000000000EC
:04080C0000000000E8
:0408100000000000E4
:0408140000000000E0
:0408180000000000DC
:04081C0000000000D8
:0408200000000000D4
:0408240000000000D0
:0408280000000000CC
:04082C0000000000C8
:0408300000000000C4
:0408340000000000C0
:0408380000000000BC
:04083C0000000000B8
:0408400000000000B4
:0408440000000000B0
:0408480000000000AC
:04084C0000000000A8
:0408500000000000A4
:0408540000000000A0
:04085800000000009C
:04085C000000000098
:040860000000000094
:040864000000000090
:04086800000000008C
:04086C000000000088
:040870000000000084
:040874000000000080
:04087800000000007C
:04087C000000000078
:040880000000000074
:040884000000000070
:04088800000000006C
:04088C000000000068
:040890000000000064
:040894000000000060
:04089800000000005C
:04089C000000000058
:0408A0000000000054
:0408A4000000000050
:0408A800000000004C
:0408AC000000000048
:0408B0000000000044
:0408B4000000000040
:0408B800000000003C
:0408BC000000000038
:0408C0000000000034
:0408C4000000000030
:0408C800000000002C
:0408CC000000000028
:0408D0000000000024
:0408D4000000000020
:0408D800000000001C
:0408DC000000000018
:0408E0000000000014
:0408E4000000000010
:0408E800000000000C
:0408EC000000000008
:0408F0000000000004
:0408F4000000000000
:0408F80000000000FC
:0408FC0000000000F8
:0409000000000000F3
:0409040000000000EF
:0409080000000000EB
:04090C0000000000E7
:0409100000000000E3
:0409140000000000DF
:0409180000000000DB
:04091C0000000000D7
:0409200000000000D3
:0409240000000000CF
:0409280000000000CB
:04092C0000000000C7
:0409300000000000C3
:0409340000000000BF
:0409380000000000BB
:04093C0000000000B7
:0409400000000000B3
:0409440000000000AF
:0409480000000000AB
:04094C0000000000A7
:0409500000000000A3
:04095400000000009F
:04095800000000009B
:04095C000000000097
:040960000000000093
:04096400000000008F
:04096800000000008B
:04096C000000000087
:040970000000000083
:04097400000000007F
:04097800000000007B
:04097C000000000077
:040980000000000073
:04098400000000006F
:04098800000000006B
:04098C000000000067
:040990000000000063
:04099400000000005F
:04099800000000005B
:04099C000000000057
:0409A0000000000053
:0409A400000000004F
:0409A800000000004B
:0409AC000000000047
:0409B0000000000043
:0409B400000000003F
:0409B800000000003B
:0409BC000000000037
:0409C0000000000033
:0409C400000000002F
:0409C800000000002B
:0409CC000000000027
:0409D0000000000023
:0409D400000000001F
:0409D800000000001B
:0409DC000000000017
:0409E0000000000013
:0409E400000000000F
:0409E800000000000B
:0409EC000000000007
:0409F0000000000003
:0409F40000000000FF
:0409F80000000000FB
:0409FC0000000000F7
:040A000000000000F2
:040A040000000000EE
:040A080000000000EA
:040A0C0000000000E6
:040A100000000000E2
:040A140000000000DE
:040A180000000000DA
:040A1C0000000000D6
:040A200000000000D2
:040A240000000000CE
:040A280000000000CA
:040A2C0000000000C6
:040A300000000000C2
:040A340000000000BE
:040A380000000000BA
:040A3C0000000000B6
:040A400000000000B2
:040A440000000000AE
:040A480000000000AA
:040A4C0000000000A6
:040A500000000000A2
:040A5400000000009E
:040A5800000000009A
:040A5C000000000096
:040A60000000000092
:040A6400000000008E
:040A6800000000008A
:040A6C000000000086
:040A70000000000082
:040A7400000000007E
:040A7800000000007A
:040A7C000000000076
:040A80000000000072
:040A8400000000006E
:040A8800000000006A
:040A8C000000000066
:040A90000000000062
:040A9400000000005E
:040A9800000000005A
:040A9C000000000056
:040AA0000000000052
:040AA400000000004E
:040AA800000000004A
:040AAC000000000046
:040AB0000000000042
:040AB400000000003E
:040AB800000000003A
:040ABC000000000036
:040AC0000000000032
:040AC400000000002E
:040AC800000000002A
:040ACC000000000026
:040AD0000000000022
:040AD400000000001E
:040AD800000000001A
:040ADC000000000016
:040AE0000000000012
:040AE400000000000E
:040AE800000000000A
:040AEC000000000006
:040AF0000000000002
:040AF40000000000FE
:040AF80000000000FA
:040AFC0000000000F6
:040B000000000000F1
:040B040000000000ED
:040B080000000000E9
:040B0C0000000000E5
:040B100000000000E1
:040B140000000000DD
:040B180000000000D9
:040B1C0000000000D5
:040B200000000000D1
:040B240000000000CD
:040B280000000000C9
:040B2C0000000000C5
:040B300000000000C1
:040B340000000000BD
:040B380000000000B9
:040B3C0000000000B5
:040B400000000000B1
:040B440000000000AD
:040B480000000000A9
:040B4C0000000000A5
:040B500000000000A1
:040B5400000000009D
:040B58000000000099
:040B5C000000000095
:040B60000000000091
:040B6400000000008D
:040B68000000000089
:040B6C000000000085
:040B70000000000081
:040B7400000000007D
:040B78000000000079
:040B7C000000000075
:040B80000000000071
:040B8400000000006D
:040B88000000000069
:040B8C000000000065
:040B90000000000061
:040B9400000000005D
:040B98000000000059
:040B9C000000000055
:040BA0000000000051
:040BA400000000004D
:040BA8000000000049
:040BAC000000000045
:040BB0000000000041
:040BB400000000003D
:040BB8000000000039
:040BBC000000000035
:040BC0000000000031
:040BC400000000002D
:040BC8000000000029
:040BCC000000000025
:040BD0000000000021
:040BD400000000001D
:040BD8000000000019
:040BDC000000000015
:040BE0000000000011
:040BE400000000000D
:040BE8000000000009
:040BEC000000000005
:040BF0000000000001
:040BF40000000000FD
:040BF80000000000F9
:040BFC0000000000F5
:040C000000000000F0
:040C040000000000EC
:040C080000000000E8
:040C0C0000000000E4
:040C100000000000E0
:040C140000000000DC
:040C180000000000D8
:040C1C0000000000D4
:040C200000000000D0
:040C240000000000CC
:040C280000000000C8
:040C2C0000000000C4
:040C300000000000C0
:040C340000000000BC
:040C380000000000B8
:040C3C0000000000B4
:040C400000000000B0
:040C440000000000AC
:040C480000000000A8
:040C4C0000000000A4
:040C500000000000A0
:040C5400000000009C
:040C58000000000098
:040C5C000000000094
:040C60000000000090
:040C6400000000008C
:040C68000000000088
:040C6C000000000084
:040C70000000000080
:040C7400000000007C
:040C78000000000078
:040C7C000000000074
:040C80000000000070
:040C8400000000006C
:040C88000000000068
:040C8C000000000064
:040C90000000000060
:040C9400000000005C
:040C98000000000058
:040C9C000000000054
:040CA0000000000050
:040CA400000000004C
:040CA8000000000048
:040CAC000000000044
:040CB0000000000040
:040CB400000000003C
:040CB8000000000038
:040CBC000000000034
:040CC0000000000030
:040CC400000000002C
:040CC8000000000028
:040CCC000000000024
:040CD0000000000020
:040CD400000000001C
:040CD8000000000018
:040CDC000000000014
:040CE0000000000010
:040CE400000000000C
:040CE8000000000008
:040CEC000000000004
:040CF0000000000000
:040CF40000000000FC
:040CF80000000000F8
:040CFC0000000000F4
:040D000000000000EF
:040D040000000000EB
:040D080000000000E7
:040D0C0000000000E3
:040D100000000000DF
:040D140000000000DB
:040D180000000000D7
:040D1C0000000000D3
:040D200000000000CF
:040D240000000000CB
:040D280000000000C7
:040D2C0000000000C3
:040D300000000000BF
:040D340000000000BB
:040D380000000000B7
:040D3C0000000000B3
:040D400000000000AF
:040D440000000000AB
:040D480000000000A7
:040D4C0000000000A3
:040D5000000000009F
:040D5400000000009B
:040D58000000000097
:040D5C000000000093
:040D6000000000008F
:040D6400000000008B
:040D68000000000087
:040D6C000000000083
:040D7000000000007F
:040D7400000000007B
:040D78000000000077
:040D7C000000000073
:040D8000000000006F
:040D8400000000006B
:040D88000000000067
:040D8C000000000063
:040D9000000000005F
:040D9400000000005B
:040D98000000000057
:040D9C000000000053
:040DA000000000004F
:040DA400000000004B
:040DA8000000000047
:040DAC000000000043
:040DB000000000003F
:040DB400000000003B
:040DB8000000000037
:040DBC000000000033
:040DC000000000002F
:040DC400000000002B
:040DC8000000000027
:040DCC000000000023
:040DD000000000001F
:040DD400000000001B
:040DD8000000000017
:040DDC000000000013
:040DE000000000000F
:040DE400000000000B
:040DE8000000000007
:040DEC000000000003
:040DF00000000000FF
:040DF40000000000FB
:040DF80000000000F7
:040DFC0000000000F3
:040E000000000000EE
:040E040000000000EA
:040E080000000000E6
:040E0C0000000000E2
:040E100000000000DE
:040E140000000000DA
:040E180000000000D6
:040E1C0000000000D2
:040E200000000000CE
:040E240000000000CA
:040E280000000000C6
:040E2C0000000000C2
:040E300000000000BE
:040E340000000000BA
:040E380000000000B6
:040E3C0000000000B2
:040E400000000000AE
:040E440000000000AA
:040E480000000000A6
:040E4C0000000000A2
:040E5000000000009E
:040E5400000000009A
:040E58000000000096
:040E5C000000000092
:040E6000000000008E
:040E6400000000008A
:040E68000000000086
:040E6C000000000082
:040E7000000000007E
:040E7400000000007A
:040E78000000000076
:040E7C000000000072
:040E8000000000006E
:040E8400000000006A
:040E88000000000066
:040E8C000000000062
:040E9000000000005E
:040E9400000000005A
:040E98000000000056
:040E9C000000000052
:040EA000000000004E
:040EA400000000004A
:040EA8000000000046
:040EAC000000000042
:040EB000000000003E
:040EB400000000003A
:040EB8000000000036
:040EBC000000000032
:040EC000000000002E
:040EC400000000002A
:040EC8000000000026
:040ECC000000000022
:040ED000000000001E
:040ED400000000001A
:040ED8000000000016
:040EDC000000000012
:040EE000000000000E
:040EE400000000000A
:040EE8000000000006
:040EEC000000000002
:040EF00000000000FE
:040EF40000000000FA
:040EF80000000000F6
:040EFC0000000000F2
:040F000000000000ED
:040F040000000000E9
:040F080000000000E5
:040F0C0000000000E1
:040F100000000000DD
:040F140000000000D9
:040F180000000000D5
:040F1C0000000000D1
:040F200000000000CD
:040F240000000000C9
:040F280000000000C5
:040F2C0000000000C1
:040F300000000000BD
:040F340000000000B9
:040F380000000000B5
:040F3C0000000000B1
:040F400000000000AD
:040F440000000000A9
:040F480000000000A5
:040F4C0000000000A1
:040F5000000000009D
:040F54000000000099
:040F58000000000095
:040F5C000000000091
:040F6000000000008D
:040F64000000000089
:040F68000000000085
:040F6C000000000081
:040F7000000000007D
:040F74000000000079
:040F78000000000075
:040F7C000000000071
:040F8000000000006D
:040F84000000000069
:040F88000000000065
:040F8C000000000061
:040F9000000000005D
:040F94000000000059
:040F98000000000055
:040F9C000000000051
:040FA000000000004D
:040FA4000000000049
:040FA8000000000045
:040FAC000000000041
:040FB000000000003D
:040FB4000000000039
:040FB8000000000035
:040FBC000000000031
:040FC000000000002D
:040FC4000000000029
:040FC8000000000025
:040FCC000000000021
:040FD000000000001D
:040FD4000000000019
:040FD8000000000015
:040FDC000000000011
:040FE000000000000D
:040FE4000000000009
:040FE8000000000005
:040FEC000000000001
:040FF00000000000FD
:040FF40000000000F9
:040FF80000000000F5
:040FFC0000000000F1
:0410000000000000EC
:0410040000000000E8
:0410080000000000E4
:04100C0000000000E0
:0410100000000000DC
:0410140000000000D8
:0410180000000000D4
:04101C0000000000D0
:0410200000000000CC
:0410240000000000C8
:0410280000000000C4
:04102C0000000000C0
:0410300000000000BC
:0410340000000000B8
:0410380000000000B4
:04103C0000000000B0
:0410400000000000AC
:0410440000000000A8
:0410480000000000A4
:04104C0000000000A0
:04105000000000009C
:041054000000000098
:041058000000000094
:04105C000000000090
:04106000000000008C
:041064000000000088
:041068000000000084
:04106C000000000080
:04107000000000007C
:041074000000000078
:041078000000000074
:04107C000000000070
:04108000000000006C
:041084000000000068
:041088000000000064
:04108C000000000060
:04109000000000005C
:041094000000000058
:041098000000000054
:04109C000000000050
:0410A000000000004C
:0410A4000000000048
:0410A8000000000044
:0410AC000000000040
:0410B000000000003C
:0410B4000000000038
:0410B8000000000034
:0410BC000000000030
:0410C000000000002C
:0410C4000000000028
:0410C8000000000024
:0410CC000000000020
:0410D000000000001C
:0410D4000000000018
:0410D8000000000014
:0410DC000000000010
:0410E000000000000C
:0410E4000000000008
:0410E8000000000004
:0410EC000000000000
:0410F00000000000FC
:0410F40000000000F8
:0410F80000000000F4
:0410FC0000000000F0
:0411000000000000EB
:0411040000000000E7
:0411080000000000E3
:04110C0000000000DF
:0411100000000000DB
:0411140000000000D7
:0411180000000000D3
:04111C0000000000CF
:0411200000000000CB
:0411240000000000C7
:0411280000000000C3
:04112C0000000000BF
:0411300000000000BB
:0411340000000000B7
:0411380000000000B3
:04113C0000000000AF
:0411400000000000AB
:0411440000000000A7
:0411480000000000A3
:04114C00000000009F
:04115000000000009B
:041154000000000097
:041158000000000093
:04115C00000000008F
:04116000000000008B
:041164000000000087
:041168000000000083
:04116C00000000007F
:04117000000000007B
:041174000000000077
:041178000000000073
:04117C00000000006F
:04118000000000006B
:041184000000000067
:041188000000000063
:04118C00000000005F
:04119000000000005B
:041194000000000057
:041198000000000053
:04119C00000000004F
:0411A000000000004B
:0411A4000000000047
:0411A8000000000043
:0411AC00000000003F
:0411B000000000003B
:0411B4000000000037
:0411B8000000000033
:0411BC00000000002F
:0411C000000000002B
:0411C4000000000027
:0411C8000000000023
:0411CC00000000001F
:0411D000000000001B
:0411D4000000000017
:0411D8000000000013
:0411DC00000000000F
:0411E000000000000B
:0411E4000000000007
:0411E8000000000003
:0411EC0000000000FF
:0411F00000000000FB
:0411F40000000000F7
:0411F80000000000F3
:0411FC0000000000EF
:0412000000000000EA
:0412040000000000E6
:0412080000000000E2
:04120C0000000000DE
:0412100000000000DA
:0412140000000000D6
:0412180000000000D2
:04121C0000000000CE
:0412200000000000CA
:0412240000000000C6
:0412280000000000C2
:04122C0000000000BE
:0412300000000000BA
:0412340000000000B6
:0412380000000000B2
:04123C0000000000AE
:0412400000000000AA
:0412440000000000A6
:0412480000000000A2
:04124C00000000009E
:04125000000000009A
:041254000000000096
:041258000000000092
:04125C00000000008E
:04126000000000008A
:041264000000000086
:041268000000000082
:04126C00000000007E
:04127000000000007A
:041274000000000076
:041278000000000072
:04127C00000000006E
:04128000000000006A
:041284000000000066
:041288000000000062
:04128C00000000005E
:04129000000000005A
:041294000000000056
:041298000000000052
:04129C00000000004E
:0412A000000000004A
:0412A4000000000046
:0412A8000000000042
:0412AC00000000003E
:0412B000000000003A
:0412B4000000000036
:0412B8000000000032
:0412BC00000000002E
:0412C000000000002A
:0412C4000000000026
:0412C8000000000022
:0412CC00000000001E
:0412D000000000001A
:0412D4000000000016
:0412D8000000000012
:0412DC00000000000E
:0412E000000000000A
:0412E4000000000006
:0412E8000000000002
:0412EC0000000000FE
:0412F00000000000FA
:0412F40000000000F6
:0412F80000000000F2
:0412FC0000000000EE
:0413000000000000E9
:0413040000000000E5
:0413080000000000E1
:04130C0000000000DD
:0413100000000000D9
:0413140000000000D5
:0413180000000000D1
:04131C0000000000CD
:0413200000000000C9
:0413240000000000C5
:0413280000000000C1
:04132C0000000000BD
:0413300000000000B9
:0413340000000000B5
:0413380000000000B1
:04133C0000000000AD
:0413400000000000A9
:0413440000000000A5
:0413480000000000A1
:04134C00000000009D
:041350000000000099
:041354000000000095
:041358000000000091
:04135C00000000008D
:041360000000000089
:041364000000000085
:041368000000000081
:04136C00000000007D
:041370000000000079
:041374000000000075
:041378000000000071
:04137C00000000006D
:041380000000000069
:041384000000000065
:041388000000000061
:04138C00000000005D
:041390000000000059
:041394000000000055
:041398000000000051
:04139C00000000004D
:0413A0000000000049
:0413A4000000000045
:0413A8000000000041
:0413AC00000000003D
:0413B0000000000039
:0413B4000000000035
:0413B8000000000031
:0413BC00000000002D
:0413C0000000000029
:0413C4000000000025
:0413C8000000000021
:0413CC00000000001D
:0413D0000000000019
:0413D4000000000015
:0413D8000000000011
:0413DC00000000000D
:0413E0000000000009
:0413E4000000000005
:0413E8000000000001
:0413EC0000000000FD
:0413F00000000000F9
:0413F40000000000F5
:0413F80000000000F1
:0413FC0000000000ED
:0414000000000000E8
:0414040000000000E4
:0414080000000000E0
:04140C0000000000DC
:0414100000000000D8
:0414140000000000D4
:0414180000000000D0
:04141C0000000000CC
:0414200000000000C8
:0414240000000000C4
:0414280000000000C0
:04142C0000000000BC
:0414300000000000B8
:0414340000000000B4
:0414380000000000B0
:04143C0000000000AC
:0414400000000000A8
:0414440000000000A4
:0414480000000000A0
:04144C00000000009C
:041450000000000098
:041454000000000094
:041458000000000090
:04145C00000000008C
:041460000000000088
:041464000000000084
:041468000000000080
:04146C00000000007C
:041470000000000078
:041474000000000074
:041478000000000070
:04147C00000000006C
:041480000000000068
:041484000000000064
:041488000000000060
:04148C00000000005C
:041490000000000058
:041494000000000054
:041498000000000050
:04149C00000000004C
:0414A0000000000048
:0414A4000000000044
:0414A8000000000040
:0414AC00000000003C
:0414B0000000000038
:0414B4000000000034
:0414B8000000000030
:0414BC00000000002C
:0414C0000000000028
:0414C4000000000024
:0414C8000000000020
:0414CC00000000001C
:0414D0000000000018
:0414D4000000000014
:0414D8000000000010
:0414DC00000000000C
:0414E0000000000008
:0414E4000000000004
:0414E8000000000000
:0414EC0000000000FC
:0414F00000000000F8
:0414F40000000000F4
:0414F80000000000F0
:0414FC0000000000EC
:0415000000000000E7
:0415040000000000E3
:0415080000000000DF
:04150C0000000000DB
:0415100000000000D7
:0415140000000000D3
:0415180000000000CF
:04151C0000000000CB
:0415200000000000C7
:0415240000000000C3
:0415280000000000BF
:04152C0000000000BB
:0415300000000000B7
:0415340000000000B3
:0415380000000000AF
:04153C0000000000AB
:0415400000000000A7
:0415440000000000A3
:04154800000000009F
:04154C00000000009B
:041550000000000097
:041554000000000093
:04155800000000008F
:04155C00000000008B
:041560000000000087
:041564000000000083
:04156800000000007F
:04156C00000000007B
:041570000000000077
:041574000000000073
:04157800000000006F
:04157C00000000006B
:041580000000000067
:041584000000000063
:04158800000000005F
:04158C00000000005B
:041590000000000057
:041594000000000053
:04159800000000004F
:04159C00000000004B
:0415A0000000000047
:0415A4000000000043
:0415A800000000003F
:0415AC00000000003B
:0415B0000000000037
:0415B4000000000033
:0415B800000000002F
:0415BC00000000002B
:0415C0000000000027
:0415C4000000000023
:0415C800000000001F
:0415CC00000000001B
:0415D0000000000017
:0415D4000000000013
:0415D800000000000F
:0415DC00000000000B
:0415E0000000000007
:0415E4000000000003
:0415E80000000000FF
:0415EC0000000000FB
:0415F00000000000F7
:0415F40000000000F3
:0415F80000000000EF
:0415FC0000000000EB
:0416000000000000E6
:0416040000000000E2
:0416080000000000DE
:04160C0000000000DA
:0416100000000000D6
:0416140000000000D2
:0416180000000000CE
:04161C0000000000CA
:0416200000000000C6
:0416240000000000C2
:0416280000000000BE
:04162C0000000000BA
:0416300000000000B6
:0416340000000000B2
:0416380000000000AE
:04163C0000000000AA
:0416400000000000A6
:0416440000000000A2
:04164800000000009E
:04164C00000000009A
:041650000000000096
:041654000000000092
:04165800000000008E
:04165C00000000008A
:041660000000000086
:041664000000000082
:04166800000000007E
:04166C00000000007A
:041670000000000076
:041674000000000072
:04167800000000006E
:04167C00000000006A
:041680000000000066
:041684000000000062
:04168800000000005E
:04168C00000000005A
:041690000000000056
:041694000000000052
:04169800000000004E
:04169C00000000004A
:0416A0000000000046
:0416A4000000000042
:0416A800000000003E
:0416AC00000000003A
:0416B0000000000036
:0416B4000000000032
:0416B800000000002E
:0416BC00000000002A
:0416C0000000000026
:0416C4000000000022
:0416C800000000001E
:0416CC00000000001A
:0416D0000000000016
:0416D4000000000012
:0416D800000000000E
:0416DC00000000000A
:0416E0000000000006
:0416E4000000000002
:0416E80000000000FE
:0416EC0000000000FA
:0416F00000000000F6
:0416F40000000000F2
:0416F80000000000EE
:0416FC0000000000EA
:0417000000000000E5
:0417040000000000E1
:0417080000000000DD
:04170C0000000000D9
:0417100000000000D5
:0417140000000000D1
:0417180000000000CD
:04171C0000000000C9
:0417200000000000C5
:0417240000000000C1
:0417280000000000BD
:04172C0000000000B9
:0417300000000000B5
:0417340000000000B1
:0417380000000000AD
:04173C0000000000A9
:0417400000000000A5
:0417440000000000A1
:04174800000000009D
:04174C000000000099
:041750000000000095
:041754000000000091
:04175800000000008D
:04175C000000000089
:041760000000000085
:041764000000000081
:04176800000000007D
:04176C000000000079
:041770000000000075
:041774000000000071
:04177800000000006D
:04177C000000000069
:041780000000000065
:041784000000000061
:04178800000000005D
:04178C000000000059
:041790000000000055
:041794000000000051
:04179800000000004D
:04179C000000000049
:0417A0000000000045
:0417A4000000000041
:0417A800000000003D
:0417AC000000000039
:0417B0000000000035
:0417B4000000000031
:0417B800000000002D
:0417BC000000000029
:0417C0000000000025
:0417C4000000000021
:0417C800000000001D
:0417CC000000000019
:0417D0000000000015
:0417D4000000000011
:0417D800000000000D
:0417DC000000000009
:0417E0000000000005
:0417E4000000000001
:0417E80000000000FD
:0417EC0000000000F9
:0417F00000000000F5
:0417F40000000000F1
:0417F80000000000ED
:0417FC0000000000E9
:0418000000000000E4
:0418040000000000E0
:0418080000000000DC
:04180C0000000000D8
:0418100000000000D4
:0418140000000000D0
:0418180000000000CC
:04181C0000000000C8
:0418200000000000C4
:0418240000000000C0
:0418280000000000BC
:04182C0000000000B8
:0418300000000000B4
:0418340000000000B0
:0418380000000000AC
:04183C0000000000A8
:0418400000000000A4
:0418440000000000A0
:04184800000000009C
:04184C000000000098
:041850000000000094
:041854000000000090
:04185800000000008C
:04185C000000000088
:041860000000000084
:041864000000000080
:04186800000000007C
:04186C000000000078
:041870000000000074
:041874000000000070
:04187800000000006C
:04187C000000000068
:041880000000000064
:041884000000000060
:04188800000000005C
:04188C000000000058
:041890000000000054
:041894000000000050
:04189800000000004C
:04189C000000000048
:0418A0000000000044
:0418A4000000000040
:0418A800000000003C
:0418AC000000000038
:0418B0000000000034
:0418B4000000000030
:0418B800000000002C
:0418BC000000000028
:0418C0000000000024
:0418C4000000000020
:0418C800000000001C
:0418CC000000000018
:0418D0000000000014
:0418D4000000000010
:0418D800000000000C
:0418DC000000000008
:0418E0000000000004
:0418E4000000000000
:0418E80000000000FC
:0418EC0000000000F8
:0418F00000000000F4
:0418F40000000000F0
:0418F80000000000EC
:0418FC0000000000E8
:0419000000000000E3
:0419040000000000DF
:0419080000000000DB
:04190C0000000000D7
:0419100000000000D3
:0419140000000000CF
:0419180000000000CB
:04191C0000000000C7
:0419200000000000C3
:0419240000000000BF
:0419280000000000BB
:04192C0000000000B7
:0419300000000000B3
:0419340000000000AF
:0419380000000000AB
:04193C0000000000A7
:0419400000000000A3
:04194400000000009F
:04194800000000009B
:04194C000000000097
:041950000000000093
:04195400000000008F
:04195800000000008B
:04195C000000000087
:041960000000000083
:04196400000000007F
:04196800000000007B
:04196C000000000077
:041970000000000073
:04197400000000006F
:04197800000000006B
:04197C000000000067
:041980000000000063
:04198400000000005F
:04198800000000005B
:04198C000000000057
:041990000000000053
:04199400000000004F
:04199800000000004B
:04199C000000000047
:0419A0000000000043
:0419A400000000003F
:0419A800000000003B
:0419AC000000000037
:0419B0000000000033
:0419B400000000002F
:0419B800000000002B
:0419BC000000000027
:0419C0000000000023
:0419C400000000001F
:0419C800000000001B
:0419CC000000000017
:0419D0000000000013
:0419D400000000000F
:0419D800000000000B
:0419DC000000000007
:0419E0000000000003
:0419E40000000000FF
:0419E80000000000FB
:0419EC0000000000F7
:0419F00000000000F3
:0419F40000000000EF
:0419F80000000000EB
:0419FC0000000000E7
:041A000000000000E2
:041A040000000000DE
:041A080000000000DA
:041A0C0000000000D6
:041A100000000000D2
:041A140000000000CE
:041A180000000000CA
:041A1C0000000000C6
:041A200000000000C2
:041A240000000000BE
:041A280000000000BA
:041A2C0000000000B6
:041A300000000000B2
:041A340000000000AE
:041A380000000000AA
:041A3C0000000000A6
:041A400000000000A2
:041A4400000000009E
:041A4800000000009A
:041A4C000000000096
:041A50000000000092
:041A5400000000008E
:041A5800000000008A
:041A5C000000000086
:041A60000000000082
:041A6400000000007E
:041A6800000000007A
:041A6C000000000076
:041A70000000000072
:041A7400000000006E
:041A7800000000006A
:041A7C000000000066
:041A80000000000062
:041A8400000000005E
:041A8800000000005A
:041A8C000000000056
:041A90000000000052
:041A9400000000004E
:041A9800000000004A
:041A9C000000000046
:041AA0000000000042
:041AA400000000003E
:041AA800000000003A
:041AAC000000000036
:041AB0000000000032
:041AB400000000002E
:041AB800000000002A
:041ABC000000000026
:041AC0000000000022
:041AC400000000001E
:041AC800000000001A
:041ACC000000000016
:041AD0000000000012
:041AD400000000000E
:041AD800000000000A
:041ADC000000000006
:041AE0000000000002
:041AE40000000000FE
:041AE80000000000FA
:041AEC0000000000F6
:041AF00000000000F2
:041AF40000000000EE
:041AF80000000000EA
:041AFC0000000000E6
:041B000000000000E1
:041B040000000000DD
:041B080000000000D9
:041B0C0000000000D5
:041B100000000000D1
:041B140000000000CD
:041B180000000000C9
:041B1C0000000000C5
:041B200000000000C1
:041B240000000000BD
:041B280000000000B9
:041B2C0000000000B5
:041B300000000000B1
:041B340000000000AD
:041B380000000000A9
:041B3C0000000000A5
:041B400000000000A1
:041B4400000000009D
:041B48000000000099
:041B4C000000000095
:041B50000000000091
:041B5400000000008D
:041B58000000000089
:041B5C000000000085
:041B60000000000081
:041B6400000000007D
:041B68000000000079
:041B6C000000000075
:041B70000000000071
:041B7400000000006D
:041B78000000000069
:041B7C000000000065
:041B80000000000061
:041B8400000000005D
:041B88000000000059
:041B8C000000000055
:041B90000000000051
:041B9400000000004D
:041B98000000000049
:041B9C000000000045
:041BA0000000000041
:041BA400000000003D
:041BA8000000000039
:041BAC000000000035
:041BB0000000000031
:041BB400000000002D
:041BB8000000000029
:041BBC000000000025
:041BC0000000000021
:041BC400000000001D
:041BC8000000000019
:041BCC000000000015
:041BD0000000000011
:041BD400000000000D
:041BD8000000000009
:041BDC000000000005
:041BE0000000000001
:041BE40000000000FD
:041BE80000000000F9
:041BEC0000000000F5
:041BF00000000000F1
:041BF40000000000ED
:041BF80000000000E9
:041BFC0000000000E5
:041C000000000000E0
:041C040000000000DC
:041C080000000000D8
:041C0C0000000000D4
:041C100000000000D0
:041C140000000000CC
:041C180000000000C8
:041C1C0000000000C4
:041C200000000000C0
:041C240000000000BC
:041C280000000000B8
:041C2C0000000000B4
:041C300000000000B0
:041C340000000000AC
:041C380000000000A8
:041C3C0000000000A4
:041C400000000000A0
:041C4400000000009C
:041C48000000000098
:041C4C000000000094
:041C50000000000090
:041C5400000000008C
:041C58000000000088
:041C5C000000000084
:041C60000000000080
:041C6400000000007C
:041C68000000000078
:041C6C000000000074
:041C70000000000070
:041C7400000000006C
:041C78000000000068
:041C7C000000000064
:041C80000000000060
:041C8400000000005C
:041C88000000000058
:041C8C000000000054
:041C90000000000050
:041C9400000000004C
:041C98000000000048
:041C9C000000000044
:041CA0000000000040
:041CA400000000003C
:041CA8000000000038
:041CAC000000000034
:041CB0000000000030
:041CB400000000002C
:041CB8000000000028
:041CBC000000000024
:041CC0000000000020
:041CC400000000001C
:041CC8000000000018
:041CCC000000000014
:041CD0000000000010
:041CD400000000000C
:041CD8000000000008
:041CDC000000000004
:041CE0000000000000
:041CE40000000000FC
:041CE80000000000F8
:041CEC0000000000F4
:041CF00000000000F0
:041CF40000000000EC
:041CF80000000000E8
:041CFC0000000000E4
:041D000000000000DF
:041D040000000000DB
:041D080000000000D7
:041D0C0000000000D3
:041D100000000000CF
:041D140000000000CB
:041D180000000000C7
:041D1C0000000000C3
:041D200000000000BF
:041D240000000000BB
:041D280000000000B7
:041D2C0000000000B3
:041D300000000000AF
:041D340000000000AB
:041D380000000000A7
:041D3C0000000000A3
:041D4000000000009F
:041D4400000000009B
:041D48000000000097
:041D4C000000000093
:041D5000000000008F
:041D5400000000008B
:041D58000000000087
:041D5C000000000083
:041D6000000000007F
:041D6400000000007B
:041D68000000000077
:041D6C000000000073
:041D7000000000006F
:041D7400000000006B
:041D78000000000067
:041D7C000000000063
:041D8000000000005F
:041D8400000000005B
:041D88000000000057
:041D8C000000000053
:041D9000000000004F
:041D9400000000004B
:041D98000000000047
:041D9C000000000043
:041DA000000000003F
:041DA400000000003B
:041DA8000000000037
:041DAC000000000033
:041DB000000000002F
:041DB400000000002B
:041DB8000000000027
:041DBC000000000023
:041DC000000000001F
:041DC400000000001B
:041DC8000000000017
:041DCC000000000013
:041DD000000000000F
:041DD400000000000B
:041DD8000000000007
:041DDC000000000003
:041DE00000000000FF
:041DE40000000000FB
:041DE80000000000F7
:041DEC0000000000F3
:041DF00000000000EF
:041DF40000000000EB
:041DF80000000000E7
:041DFC0000000000E3
:041E000000000000DE
:041E040000000000DA
:041E080000000000D6
:041E0C0000000000D2
:041E100000000000CE
:041E140000000000CA
:041E180000000000C6
:041E1C0000000000C2
:041E200000000000BE
:041E240000000000BA
:041E280000000000B6
:041E2C0000000000B2
:041E300000000000AE
:041E340000000000AA
:041E380000000000A6
:041E3C0000000000A2
:041E4000000000009E
:041E4400000000009A
:041E48000000000096
:041E4C000000000092
:041E5000000000008E
:041E5400000000008A
:041E58000000000086
:041E5C000000000082
:041E6000000000007E
:041E6400000000007A
:041E68000000000076
:041E6C000000000072
:041E7000000000006E
:041E7400000000006A
:041E78000000000066
:041E7C000000000062
:041E8000000000005E
:041E8400000000005A
:041E88000000000056
:041E8C000000000052
:041E9000000000004E
:041E9400000000004A
:041E98000000000046
:041E9C000000000042
:041EA000000000003E
:041EA400000000003A
:041EA8000000000036
:041EAC000000000032
:041EB000000000002E
:041EB400000000002A
:041EB8000000000026
:041EBC000000000022
:041EC000000000001E
:041EC400000000001A
:041EC8000000000016
:041ECC000000000012
:041ED000000000000E
:041ED400000000000A
:041ED8000000000006
:041EDC000000000002
:041EE00000000000FE
:041EE40000000000FA
:041EE80000000000F6
:041EEC0000000000F2
:041EF00000000000EE
:041EF40000000000EA
:041EF80000000000E6
:041EFC0000000000E2
:041F000000000000DD
:041F040000000000D9
:041F080000000000D5
:041F0C0000000000D1
:041F100000000000CD
:041F140000000000C9
:041F180000000000C5
:041F1C0000000000C1
:041F200000000000BD
:041F240000000000B9
:041F280000000000B5
:041F2C0000000000B1
:041F300000000000AD
:041F340000000000A9
:041F380000000000A5
:041F3C0000000000A1
:041F4000000000009D
:041F44000000000099
:041F48000000000095
:041F4C000000000091
:041F5000000000008D
:041F54000000000089
:041F58000000000085
:041F5C000000000081
:041F6000000000007D
:041F64000000000079
:041F68000000000075
:041F6C000000000071
:041F7000000000006D
:041F74000000000069
:041F78000000000065
:041F7C000000000061
:041F8000000000005D
:041F84000000000059
:041F88000000000055
:041F8C000000000051
:041F9000000000004D
:041F94000000000049
:041F98000000000045
:041F9C000000000041
:041FA000000000003D
:041FA4000000000039
:041FA8000000000035
:041FAC000000000031
:041FB000000000002D
:041FB4000000000029
:041FB8000000000025
:041FBC000000000021
:041FC000000000001D
:041FC4000000000019
:041FC8000000000015
:041FCC000000000011
:041FD000000000000D
:041FD4000000000009
:041FD8000000000005
:041FDC000000000001
:041FE00000000000FD
:041FE40000000000F9
:041FE80000000000F5
:041FEC0000000000F1
:041FF00000000000ED
:041FF40000000000E9
:041FF80000000000E5
:041FFC0000000000E1
:04200000EFBEEFBE82
:04200400EFBEEFBE7E
:04200800EFBEEFBE7A
:04200C00EFBEEFBE76
:04201000EFBEEFBE72
:0420140000000000C8
:0420180000000000C4
:04201C0000000000C0
:00000001FF
